:10000000A0C0000015C10000CCC00000CAC00000A4
:10001000C8C00000C6C00000C4C00000C2C00000CC
:10002000C0C00000BEC00000BCC00000BAC00000DC
:10003000B8C00000B6C00000B4C00000B2C00000EC
:10004000B0C00000AEC00000ACC00000AAC00000FC
:10005000A8C00000A6C00000A4C00000A2C000000C
:10006000A0C000009EC000009CC000009AC000001C
:1000700098C0000096C0000094C0000092C000002C
:1000800079C100008EC000008CC000008AC0000052
:1000900088C0000086C0000084C0000082C000004C
:1000A00080C000007EC000007CC000007AC000005C
:1000B00078C0000076C0000074C0000072C000006C
:1000C00070C000006EC000006CC000006AC000007C
:1000D00068C0000066C0000064C0000062C000008C
:1000E00060C00000570157016401710171017E0178
:1000F0007E018B018B018B019101640374038403E6
:100100009403A403B403C403D403B604E603F803BE
:100110000A042B04370443044F045B04670473048C
:100120007F04B6048D049B04A904750781078D071D
:100130009907A507B107BD076907CB07D907E707E7
:100140001D0211241FBECFEFD1E2DEBFCDBF00E004
:100150000CBF12E0A0E0B2E0E4E3F8E100E00BBF86
:1001600002C007900D92A034B107D9F722E0A0E4B5
:10017000B2E001C01D92A635B207E1F710E0C1EA76
:10018000D0E000E006C021970109802FFE010E9407
:10019000FC0BC03AD10780E00807A9F719D10C94ED
:1001A000180C2ECF0895EAE0F1E08081886080830A
:1001B000EBE0F1E08081877F808380B3836080BB48
:1001C00081B38C7F81BBE0E2F1E080818368808332
:1001D000E1E2F1E08081836080838DEC90E0909398
:1001E0002901809328010895613039F0623061F06F
:1001F000109229011092280108958DEC90E09093BF
:1002000029018093280108958FEF93E090932901AD
:10021000809328010895662319F0613029F008952C
:1002200081B38C7F81BB089581B3836081BB0895C6
:100230001F920F920FB60F9211240BB60F922F93AD
:100240003F934F935F936F937F938F939F93AF935E
:10025000BF93EF93FF9383E492E029D783E492E086
:1002600031D78091400290914102019690934102D2
:10027000809340028730910541F018F00997039769
:1002800020F061E084E492E0F2D78091400285B9E9
:10029000E0914002F09141023197EB30F10508F016
:1002A00051C08827EE58FF4F8F4F0C94FC0B40E055
:1002B00050E06FE274E485E492E0ABD364E670E072
:1002C00085E492E052D143C040E050E46CE975E42B
:1002D00085E492E09ED364E170E085E492E045D14C
:1002E00036C040E050E46CE176E485E492E091D3DE
:1002F00064E670E085E492E038D129C040E050E047
:100300006FE274E485E492E084D36CE97FEF85E4E6
:1003100092E02BD11CC064E670E085E492E025D128
:1003200016C040E050E46CE975E485E492E071D3D6
:1003300060E070E085E492E018D162E084E492E04D
:1003400096D705C060E070E085E492E00ED1FF91A1
:10035000EF91BF91AF919F918F917F916F915F913D
:100360004F913F912F910F900BBE0F900FBE0F90AA
:100370001F9018951F920F920FB60F9211240BB673
:100380000F922F933F934F935F936F937F938F932E
:100390009F93AF93BF93EF93FF938FEF8CBB83E457
:1003A00092E087D683E492E08AD6FF91EF91BF91E5
:1003B000AF919F918F917F916F915F914F913F91FD
:1003C0002F910F900BBE0F900FBE0F901F9018959E
:1003D000789483E492E04FD683E492E055D683E4A8
:1003E00092E067D6E12C0EE428E040E855E260E0B8
:1003F00070E084E492E06ED684E492E0FFD684B1AB
:100400008E6F84B915B8189BFECF60E084E492E04B
:100410002ED72FEF8BE792E9215080409040E1F7F3
:1004200000C0000064E670E085E492E09ED08FEFAB
:1004300084B985E492E05DD3FCCFCF92DF92EF9256
:10044000FF920F930F2EC12CD12CFFE2EF2EF4E47C
:10045000FF2EF02D06E028E443E464E085E492E01A
:10046000C6D584E492E035D683E492E003D682E4F4
:1004700092E098DE0F91FF90EF90DF90CF9008957B
:100480008F929F92AF92BF92CF92DF92EF92FF92A4
:100490000F931F93CF93DF93EC010C811D81CE80CE
:1004A000DF80E884F9845801AA2480E8B822C701D3
:1004B000B6010E947D0A66277078A616B706B1F0CD
:1004C00020E030E040EF51E4C701B601AAD788230D
:1004D00054F420E030E040EF51ECC701B6010E9437
:1004E000600B18161CF001151105B1F0B801110FC1
:1004F000880B990B0E94B00AA70196012DD728817D
:1005000039814A815B8191D7A701960126D76E83F5
:100510007F83888799871CC046015701B7FAB0943A
:10052000B7F8B09420E030E040E85EE3688179817C
:100530008A819B810E94640B9B01AC01C501B401BF
:1005400074D7A701960109D76E837F83888799871F
:10055000DF91CF911F910F91FF90EF90DF90CF909F
:10056000BF90AF909F908F9008952F923F924F929F
:100570005F926F927F928F929F92AF92BF92CF9233
:10058000DF92EF92FF920F931F93CF93DF937C0143
:10059000EB012FEF269FC001279F900D112464E6E9
:1005A00070E00E94C70B8B016B011616170624F032
:1005B00022242A94322C03C022242394312CF701C4
:1005C00086809780A084B18420E030E0A901C50135
:1005D000B4010E94600B18160CF448C0CC59DF4FD0
:1005E000C93CD10570F5B801DD2024F466277727D2
:1005F000601B710B072E000C880B990BB1D72B01D8
:100600003C0120E030E0A901C501B4010E94600B6B
:1006100018163CF0B7FAB094B7F8B094CFEFDFEF0C
:1006200002C0CFEFDFEFA3019201C501B4010E9428
:10063000600B18161CF02C163D0619F081E0F7012E
:100640008687F7011583048317C0B801DD2024F4E1
:1006500066277727601B710B072E000C880B990B00
:100660007FD72B013C01C1E0D0E0DDCFCC59DF4F7B
:10067000C93CD10550F3E5CFDF91CF911F910F9188
:10068000FF90EF90DF90CF90BF90AF909F908F90B2
:100690007F906F905F904F903F902F900895CF93F1
:1006A000DF93EC016111C8C0EC858E2F90E0FC0156
:1006B000E154F109EC30F10508F058C18827E358FE
:1006C000FF4F8F4F0C94FC0B82B121E030E00D8482
:1006D00002C0220F331F0A94E2F791E0232B09F0A6
:1006E00090E0892382B942C185B121E030E00D84D8
:1006F00002C0220F331F0A94E2F791E0232B09F086
:1007000090E0892385B932C188B121E030E00D84C1
:1007100002C0220F331F0A94E2F791E0232B09F065
:1007200090E0892388B922C18BB121E030E00D84AB
:1007300002C0220F331F0A94E2F791E0232B09F045
:1007400090E089238BB912C18EB121E030E00D8495
:1007500002C0220F331F0A94E2F791E0232B09F025
:1007600090E089238EB902C181B321E030E00D848D
:1007700002C0220F331F0A94E2F791E0232B09F005
:1007800090E0892381BBF2C084B321E030E00D8486
:1007900002C0220F331F0A94E2F791E0232B09F0E5
:1007A00090E0892384BBE2C08091020121E030E027
:1007B0000D8402C0220F331F0A94E2F791E0232B2D
:1007C00009F090E0892380930201D0C08091050157
:1007D00021E030E00D8402C0220F331F0A94E2F7BB
:1007E00091E0232B09F090E0892380930501BEC09E
:1007F0008091080121E030E00D8402C0220F331FF8
:100800000A94E2F791E0232B09F090E0892380938A
:100810000801ACC080910B0121E030E00D8402C0E2
:10082000220F331F0A94E2F791E0232B09F090E0A6
:10083000892380930B019AC0EC858E2F90E0FC01F8
:10084000E154F109EC30F10508F090C08827E75732
:10085000FF4F8F4FD1C722B181E090E00D8402C0DD
:10086000880F991F0A94E2F7822B82B97FC025B1C5
:1008700081E090E00D8402C0880F991F0A94E2F78E
:10088000822B85B973C028B181E090E00D8402C04D
:10089000880F991F0A94E2F7822B88B967C02BB1A1
:1008A00081E090E00D8402C0880F991F0A94E2F75E
:1008B000822B8BB95BC02EB181E090E00D8402C029
:1008C000880F991F0A94E2F7822B8EB94FC021B38B
:1008D00081E090E00D8402C0880F991F0A94E2F72E
:1008E000822B81BB43C024B381E090E00D8402C021
:1008F000880F991F0A94E2F7822B84BB37C0E2E08D
:10090000F1E0208181E090E00D8402C0880F991F02
:100910000A94E2F7822B808329C0E5E0F1E0208190
:1009200081E090E00D8402C0880F991F0A94E2F7DD
:10093000822B80831BC0E8E0F1E0208181E090E021
:100940000D8402C0880F991F0A94E2F7822B8083DE
:100950000DC0EBE0F1E0208181E090E00D8402C069
:10096000880F991F0A94E2F7822B8083DF91CF9141
:100970000895CF93DF93EC0160E091DE8A858330A8
:1009800079F018F4813031F01CC0843079F0853072
:1009900099F017C0E1E8F0E080818A7F808311C080
:1009A000E1E9F0E080818A7F80830BC0E1EAF0E03A
:1009B00080818A7F808305C0E1E2F1E080818A7FC7
:1009C0008083DF91CF910895FC018285833079F097
:1009D00018F4813031F00895843079F0853099F041
:1009E0000895E1E8F0E08081856080830895E1E981
:1009F000F0E08081856080830895E1EAF0E0808105
:100A0000856080830895E1E2F1E0808185608083E4
:100A10000895FC0140835183628373830895FC0130
:100A20009385923431F1933409F443C0913409F041
:100A30005FC08285833071F018F4813031F0089501
:100A4000843069F0853081F0089570938900609357
:100A500088000895709399006093980008957093AA
:100A6000A9006093A800089570932901609328015C
:100A700008958285833071F018F4813031F0089543
:100A8000843069F0853081F0089570938B00609315
:100A90008A00089570939B0060939A000895709364
:100AA000AB006093AA00089570932B0160932A0114
:100AB00008958285833071F018F4813031F0089503
:100AC000843069F0853081F0089570938D006093D3
:100AD0008C00089570939D0060939C00089570931E
:100AE000AD006093AC00089570932D0160932C01CC
:100AF0000895CF92DF92EF92FF920F931F93CF93BF
:100B0000DF93EC01CE80DF80E884F98420E030E0E0
:100B100040E252ECC701B601D3D5181664F420E0C8
:100B200030E040E252E4C701B6017BD488231CF4D4
:100B3000CE011FDF24C0CE0147DF20E030E0A90155
:100B40006E817F8188859985BBD518165CF460E03D
:100B5000CE01A5DD6E817F8188859985CED4CE01B9
:100B60005EDF0DC061E0CE019ADD8E819F81A88598
:100B7000B985BC01CD019058C0D4CE0150DF8E851F
:100B8000882309F441C0CE80DF80E884F9840C8199
:100B90001D81B801665F7F4F072E000C880B990BF3
:100BA000DFD49B01AC01C701B6013BD488237CF4A0
:100BB000B8016A507109072E000C880B990BD0D42C
:100BC0009B01AC01C701B6017BD518169CF020E053
:100BD00030E040E252ECC701B60172D51816A4F419
:100BE00020E030E040E252E4C701B6011AD4882385
:100BF0000CF064C01E8681E08F8784E080938100C2
:100C000010928500109284008F85882351F0809186
:100C100084009091850083319A4718F01F861092C6
:100C20008100CE80DF80E884F98420E030E040E27B
:100C300052ECC701B60144D51816C4F420E030E0E8
:100C400040E252E4C701B601ECD388237CF48E85E0
:100C5000811107C08F85811104C060E0CE014096EC
:100C6000C3DA60E0CE014096D6DA1BC08E858111D2
:100C70000BC08F85811108C020E030E0A901C701B9
:100C8000B601CFD388232CF462E0CE014096ACDAD3
:100C900004C061E0CE014096A7DA61E0CE01409643
:100CA000BADACE01EDDB1CC020E030E040E252E4D5
:100CB000C701B601B6D38823A4F2D8CF8F85882385
:100CC00099F305C0CE80DF80E884F984B7CF8091A6
:100CD00084009091850083319A4708F09FCFF2CF2E
:100CE000DF91CF911F910F91FF90EF90DF90CF9008
:100CF0000895FC0162874387423409F447C04334B6
:100D000009F488C0413411F081E483876330B1F085
:100D100018F4613039F004C06430E1F0653041F11D
:100D200081E08287E0E8F0E0808181688083E1E80B
:100D3000F0E080818D608083259A0895E0E9F0E0FD
:100D4000808181688083E1E9F0E080818D6080832B
:100D50006B9A0895E0EAF0E0808181688083E1EA9F
:100D6000F0E080818D60808388E0809301010895A8
:100D7000E0E2F1E0808181688083E1E2F1E080815E
:100D80008D60808388E080930A0108956330B1F01C
:100D900018F4613039F004C06430E1F0653051F18D
:100DA00081E08287E0E8F0E0808181628083E1E891
:100DB000F0E080818D608083269A0895E0E9F0E07C
:100DC000808181628083E1E9F0E080818D608083B1
:100DD0006C9A0895E0EAF0E0808181628083E1EA24
:100DE000F0E080818D608083E1E0F1E080818061CE
:100DF00080830895E0E2F1E0808181628083E1E216
:100E0000F1E080818D608083EAE0F1E080818061A3
:100E1000808308956330B1F018F4613039F004C074
:100E20006430E9F0653059F181E08287E0E8F0E074
:100E3000808189608083E1E8F0E080818D6080833B
:100E4000279A0895E0E9F0E0808189608083E1E9F4
:100E5000F0E080818D60808380E28DB90895E0EAC2
:100E6000F0E0808189608083E1EAF0E080818D603C
:100E70008083E1E0F1E08081806280830895E0E298
:100E8000F1E0808189608083E1E2F1E080818D6022
:100E90008083EAE0F1E08081806280830895CF93CF
:100EA000DF93EC016C874D87483028F4673421F4D8
:100EB000463008F456C01D86862F90E0FC01E254AF
:100EC000F109EB30F10528F48827EB56FF4F8F4FDF
:100ED00093C421B181E090E00D8402C0880F991F76
:100EE0000A94E2F7822B81B97FC024B181E090E0BF
:100EF0000D8402C0880F991F0A94E2F7822B84B9EF
:100F000073C027B181E090E00D8402C0880F991F63
:100F10000A94E2F7822B87B967C02AB181E090E09A
:100F20000D8402C0880F991F0A94E2F7822B8AB9B8
:100F30005BC02DB181E090E00D8402C0880F991F45
:100F40000A94E2F7822B8DB94FC020B381E090E084
:100F50000D8402C0880F991F0A94E2F7822B80BB90
:100F600043C023B381E090E00D8402C0880F991F35
:100F70000A94E2F7822B83BB37C0E1E0F1E02081E5
:100F800081E090E00D8402C0880F991F0A94E2F777
:100F9000822B808329C0E4E0F1E0208181E090E0B1
:100FA0000D8402C0880F991F0A94E2F7822B808378
:100FB0001BC0E7E0F1E0208181E090E00D8402C0F9
:100FC000880F991F0A94E2F7822B80830DC0EAE014
:100FD000F1E0208181E090E00D8402C0880F991F2C
:100FE0000A94E2F7822B8083DF91CF9108956F926C
:100FF0007F92AF92BF92CF92DF92EF92FF920F93C8
:101000001F93CF93DF93EC01762E642E122F5C0199
:1010100080E1A80EB11CC501C5D81D821C8280E0EC
:1010200090E0A0E8BFE38E839F83A887B9871E86E0
:101030001F86462D672DCE015CDE402F612FCE012D
:101040002EDFC882D982EA82FB82CE0192DC60E088
:1010500070E0CE01E4DCC501A6D8DF91CF911F91ED
:101060000F91FF90EF90DF90CF90BF90AF907F9067
:101070006F900895089583E08093690010926A004C
:1010800081E08DBB1AB80895109290008DE0809396
:10109000910083E08093710010929500109294006B
:1010A00080E797E1909399008093980008951DBA86
:1010B000089588E08093910010927100089581E076
:1010C0008DBB08958DE08093910083E08093710043
:1010D00008950895EF920F93CF93C22FDB01CA01B9
:1010E0008C529140A109B109853D904CA140B105B8
:1010F00008F078C08BEF8C0F843008F073C080E26A
:101100008093C80088E18093C9001092CA00DB0177
:10111000CA0180589B47A14EBF4F880F991FAA1F35
:10112000BB1F880F991FAA1FBB1F880F991FAA1FDB
:10113000BB1F440F551F661F771F440F551F661FA7
:10114000771F9A01AB01220F331F441F551F220F37
:10115000331F441F551FBC01CD012CD32150310931
:101160003093CD002093CC00C83031F4EAECF0E0AD
:1011700080818660808316C0C73031F4EAECF0E0ED
:101180008081846080830EC0C63031F4EAECF0E0E8
:1011900080818260808306C0C53021F4EAECF0E0F3
:1011A00080818083053431F4EAECF0E08081806254
:1011B00080830CC00F3431F4EAECF0E0808180636E
:1011C000808304C0EAECF0E080818083E11005C0F8
:1011D000E9ECF0E08081808305C0E9ECF0E08081FB
:1011E00080688083CF910F91EF900895E8ECF0E054
:1011F000808185FFFDCF6093CE000895CF92DF926E
:10120000EF92FF920F931F93CF93DF93CDB7DEB78B
:1012100060970FB6F894DEBF0FBECDBF6C0180E1C2
:10122000E0E0F2E0DE01119601900D928A95E1F77F
:101230008E010F5F1F4F7E0181E1E80EF11CF80166
:10124000619171918F01C601D1DF0E151F05B9F7AC
:1012500060960FB6F894DEBF0FBECDBFDF91CF9181
:101260001F910F91FF90EF90DF90CF900895CF9254
:10127000DF92EF92FF920F931F93CF93DF93CDB73F
:10128000DEB7E0970FB6F894DEBF0FBECDBF8C017E
:1012900080E1E0E1F2E0DE01119601900D928A9585
:1012A000E1F780E1E0E2F2E0DE01519601900D927B
:1012B0008A95E1F780E1E0E3F2E0DE0191960190AA
:1012C0000D928A95E1F76130A9F018F0623021F1B2
:1012D00034C0CE0101967C016E0191E1C90ED11C92
:1012E000F701619171917F01C80180DFCE14DF04A5
:1012F000B9F723C07E01F1E1EF0EF11C6E0181E22E
:10130000C80ED11CF701619171917F01C8016EDF98
:10131000EC14FD04B9F711C07E01F1E2EF0EF11CEF
:101320006E0181E3C80ED11CF701619171917F01BB
:10133000C8015CDFCE14DF04B9F7E0960FB6F8946D
:10134000DEBF0FBECDBFDF91CF911F910F91FF90F8
:10135000EF90DF90CF9008955058BB27AA270ED06A
:1013600075C166D130F06BD120F031F49F3F11F49C
:101370001EF45BC10EF4E095E7FB51C1E92F77D174
:1013800080F3BA17620773078407950718F071F4A2
:101390009EF58FC10EF4E0950B2EBA2FA02D0B01F8
:1013A000B90190010C01CA01A0011124FF27591BAA
:1013B00099F0593F50F4503E68F11A16F040A22FB0
:1013C000232F342F4427585FF3CF46953795279521
:1013D000A795F0405395C9F77EF41F16BA0B620B20
:1013E000730B840BBAF09150A1F0FF0FBB1F661F67
:1013F000771F881FC2F70EC0BA0F621F731F841FAA
:1014000048F4879577956795B795F7959E3F08F0CF
:10141000B3CF9395880F08F09927EE0F979587958E
:101420000895D9D008F481E008950CD00FC107D1F8
:1014300040F0FED030F021F45F3F19F0F0C05111C0
:1014400039C1F3C014D198F39923C9F35523B1F3EB
:10145000951B550BBB27AA2762177307840738F023
:101460009F5F5F4F220F331F441FAA1FA9F333D082
:101470000E2E3AF0E0E830D091505040E695001C36
:10148000CAF729D0FE2F27D0660F771F881FBB1FF2
:10149000261737074807AB07B0E809F0BB0B802DCC
:1014A000BF01FF2793585F4F2AF09E3F510568F018
:1014B000B6C000C15F3FECF3983EDCF386957795AC
:1014C0006795B795F7959F5FC9F7880F911D96951A
:1014D000879597F90895E1E0660F771F881FBB1F76
:1014E000621773078407BA0720F0621B730B840B23
:1014F000BA0BEE1F88F7E095089504D06894B111F7
:10150000D9C00895BCD088F09F5790F0B92F992783
:10151000B751A0F0D1F0660F771F881F991F1AF0FE
:10152000BA95C9F712C0B13081F0C3D0B1E00895C7
:10153000C0C0672F782F8827B85F39F0B93FCCF348
:10154000869577956795B395D9F73EF490958095F4
:10155000709561957F4F8F4F9F4F0895E89409C014
:1015600097FB3EF490958095709561957F4F8F4FD6
:101570009F4F9923A9F0F92F96E9BB279395F695EC
:10158000879577956795B795F111F8CFFAF4BB0F6A
:1015900011F460FF1BC06F5F7F4F8F4F9F4F16C0CE
:1015A000882311F096E911C0772321F09EE8872F58
:1015B000762F05C0662371F096E8862F70E060E014
:1015C0002AF09A95660F771F881FDAF7880F96958D
:1015D000879597F90895990F0008550FAA0BE0E831
:1015E000FEEF16161706E807F907C0F012161306E5
:1015F000E407F50798F0621B730B840B950B39F425
:101600000A2661F0232B242B252B21F408950A268A
:1016100009F4A140A6958FEF811D811D089597F9CA
:101620009F6780E870E060E008959FEF80EC089588
:1016300000240A94161617061806090608950024B1
:101640000A9412161306140605060895092E03942B
:10165000000C11F4882352F0BB0F40F4BF2B11F49F
:1016600060FF04C06F5F7F4F8F4F9F4F089557FDFE
:101670009058440F551F59F05F3F71F04795880F00
:1016800097FB991F61F09F3F79F087950895121697
:1016900013061406551FF2CF4695F1DF08C0161643
:1016A00017061806991FF1CF8695710561050894F4
:1016B0000895E894BB2766277727CB0197F908950B
:1016C0008ADF08F48FEF08950BD0C0CFB1DF28F088
:1016D000B6DF18F0952309F0A2CFA7CF1124EACFE7
:1016E000C6DFA0F3959FD1F3950F50E0551F629F81
:1016F000F001729FBB27F00DB11D639FAA27F00D6B
:10170000B11DAA1F649F6627B00DA11D661F829F91
:101710002227B00DA11D621F739FB00DA11D621F76
:10172000839FA00D611D221F749F3327A00D611D93
:10173000231F849F600D211D822F762F6A2F112475
:101740009F5750408AF0E1F088234AF0EE0FFF1FC8
:10175000BB1F661F771F881F91505040A9F79E3FFF
:10176000510570F05CCFA6CF5F3FECF3983EDCF301
:10177000869577956795B795F795E7959F5FC1F73C
:10178000FE2B880F911D9695879597F9089597FBE5
:10179000072E16F4009406D077FD08D035D007FC4C
:1017A00005D03EF4909581959F4F08957095619571
:1017B0007F4F0895A1E21A2EAA1BBB1BFD010DC08D
:1017C000AA1FBB1FEE1FFF1FA217B307E407F507F1
:1017D00020F0A21BB30BE40BF50B661F771F881FCD
:1017E000991F1A9469F760957095809590959B0163
:1017F000AC01BD01CF010895EE0FFF1F881F8BBF05
:101800000790F691E02D1994AA1BBB1B51E107C06C
:10181000AA1FBB1FA617B70710F0A61BB70B881F80
:10182000991F5A95A9F780959095BC01CD0108950F
:04183000F894FFCF5A
:101834007E000600000000001A00FF00DC00EF003C
:101844007E000300000000000100FF00FC00EF0028
:101854007E000300000000000200FF00FB00EF0018
:101864007E000300000000000300FF00FA00EF0008
:00000001FF
