:10000000A1C00000C3C00000C0C00000BEC000000E
:10001000BCC00000BAC00000B8C00000B6C00000FC
:10002000B4C00000B2C00000B0C00000AEC000000C
:10003000ACC00000AAC00000A8C00000A6C000001C
:10004000A4C00000A2C00000A0C000009EC000002C
:100050009CC000009AC0000098C0000096C000003C
:1000600094C0000092C0000090C000008EC000004C
:100070008CC000008AC0000088C0000086C000005C
:1000800039C1000082C0000080C000007EC00000B6
:100090007CC000007AC0000078C0000076C000007C
:1000A00074C0000072C0000070C000006EC000008C
:1000B0006CC000006AC0000068C0000066C000009C
:1000C00064C0000062C0000060C000005EC00000AC
:1000D0005CC000005AC0000058C0000056C00000BC
:1000E00054C00000F800FF0006010F0116011F01B7
:1000F000280131013A01410148015101FC010C0282
:100100001C022C023C024C025C026C024E037E027A
:100110009002A202C302CF02DB02E702F302FF0257
:100120000B0317034E03250333034103C505D10514
:10013000DD05E905F50501060D06B9051B062906CD
:100140003706B80111241FBECFEFD1E2DEBFCDBF0D
:1001500000E00CBF22E0A0E0B2E001C01D92A1319E
:10016000B207E1F710E0C2EAD0E000E006C0219754
:100170000109802FFE010E94D108C13AD10780E019
:100180000807A9F7E5D00C94ED083ACF1F920F921B
:100190000FB60F9211240BB60F922F933F934F93EC
:1001A0005F936F937F938F939F93AF93BF93EF93DF
:1001B000FF9382E092E0B5D582E092E0BDD58091D8
:1001C0000002909101020196909301028093000237
:1001D00085B115B8E0910002F09101023197EC3041
:1001E000F10508F06DC08827EE58FF4F8F4FD9C733
:1001F00066E470E083E092E0D8D0289A68C066E4B4
:1002000070E083E092E0D1D0299A61C064E670E0AA
:1002100083E092E0CAD085B1836085B958C064E1BB
:1002200070E083E092E0C1D02A9A51C064E670E0A9
:1002300083E092E0BAD085B1856085B948C064E6B4
:1002400070E083E092E0B1D085B1866085B93FC0AF
:100250006CE97FEF83E092E0A8D085B1876085B933
:1002600036C06CE97FEF83E092E09FD085B1876074
:1002700085B92DC064E670E083E092E096D02B9AB9
:1002800026C064E670E083E092E08FD02B9A1FC016
:1002900064E670E083E092E088D085B1896085B93A
:1002A00016C02FEF89E698E1215080409040E1F799
:1002B00000C0000060E070E083E092E076D007C00C
:1002C00060E070E083E092E070D085B185B9FF9185
:1002D000EF91BF91AF919F918F917F916F915F91BE
:1002E0004F913F912F910F900BBE0F900FBE0F902B
:1002F0001F9018951F920F920FB60F9211240BB6F4
:100300000F922F933F934F935F936F937F938F93AE
:100310009F93AF93BF93EF93FF938FEF8CBB82E0DC
:1003200092E001D582E092E004D5FF91EF91BF9178
:10033000AF919F918F917F916F915F914F913F917D
:100340002F910F900BBE0F900FBE0F901F9018951E
:10035000789482E092E0C9D482E092E0CFD482E047
:1003600092E0E1D48FEF84B983E092E0C5D2FCCF74
:10037000CF92DF92EF92FF920F930F2EC12CD12CD0
:10038000FFE2EF2EF4E4FF2EF02D06E028E443E434
:1003900064E083E092E07BD482E092E0A5D40F9108
:1003A000FF90EF90DF90CF900895FC01CB018C5926
:1003B0009F4F893C910558F42FEF269FC001279F3E
:1003C000900D112464E670E0D9D675836483089596
:1003D000CF93DF93EC016111C7C0EC858E2F90E0C5
:1003E000FC01E154F109EC30F10508F057C1882710
:1003F000E258FF4F8F4FD5C682B121E030E00D8427
:1004000002C0220F331F0A94E2F791E0232B09F078
:1004100090E0892382B942C185B121E030E00D84AA
:1004200002C0220F331F0A94E2F791E0232B09F058
:1004300090E0892385B932C188B121E030E00D8494
:1004400002C0220F331F0A94E2F791E0232B09F038
:1004500090E0892388B922C18BB121E030E00D847E
:1004600002C0220F331F0A94E2F791E0232B09F018
:1004700090E089238BB912C18EB121E030E00D8468
:1004800002C0220F331F0A94E2F791E0232B09F0F8
:1004900090E089238EB902C181B321E030E00D8460
:1004A00002C0220F331F0A94E2F791E0232B09F0D8
:1004B00090E0892381BBF2C084B321E030E00D8459
:1004C00002C0220F331F0A94E2F791E0232B09F0B8
:1004D00090E0892384BBE2C08091020121E030E0FA
:1004E0000D8402C0220F331F0A94E2F791E0232B00
:1004F00009F090E0892380930201D0C0809105012A
:1005000021E030E00D8402C0220F331F0A94E2F78D
:1005100091E0232B09F090E0892380930501BEC070
:100520008091080121E030E00D8402C0220F331FCA
:100530000A94E2F791E0232B09F090E0892380935D
:100540000801ACC080910B0121E030E00D8402C0B5
:10055000220F331F0A94E2F791E0232B09F090E079
:10056000892380930B019AC0EC858E2F90E0FC01CB
:10057000E154F109EC30F10508F090C08827E65706
:10058000FF4F8F4F0EC622B181E090E00D8402C074
:10059000880F991F0A94E2F7822B82B97FC025B198
:1005A00081E090E00D8402C0880F991F0A94E2F761
:1005B000822B85B973C028B181E090E00D8402C020
:1005C000880F991F0A94E2F7822B88B967C02BB174
:1005D00081E090E00D8402C0880F991F0A94E2F731
:1005E000822B8BB95BC02EB181E090E00D8402C0FC
:1005F000880F991F0A94E2F7822B8EB94FC021B35E
:1006000081E090E00D8402C0880F991F0A94E2F700
:10061000822B81BB43C024B381E090E00D8402C0F3
:10062000880F991F0A94E2F7822B84BB37C0E2E05F
:10063000F1E0208181E090E00D8402C0880F991FD5
:100640000A94E2F7822B808329C0E5E0F1E0208163
:1006500081E090E00D8402C0880F991F0A94E2F7B0
:10066000822B80831BC0E8E0F1E0208181E090E0F4
:100670000D8402C0880F991F0A94E2F7822B8083B1
:100680000DC0EBE0F1E0208181E090E00D8402C03C
:10069000880F991F0A94E2F7822B8083DF91CF9114
:1006A0000895CF93DF93EC0160E092DE8A8583307A
:1006B00079F018F4813031F01CC0843079F0853045
:1006C00099F017C0E1E8F0E080818A7F808311C053
:1006D000E1E9F0E080818A7F80830BC0E1EAF0E00D
:1006E00080818A7F808305C0E1E2F1E080818A7F9A
:1006F0008083DF91CF910895FC018285833079F06A
:1007000018F4813031F00895843079F0853099F013
:100710000895E1E8F0E08081856080830895E1E953
:10072000F0E08081856080830895E1EAF0E08081D7
:10073000856080830895E1E2F1E0808185608083B7
:1007400008958F929F92AF92BF92CF92DF92EF92D5
:10075000FF920F931F93CF93DF93EC010C811D81C8
:10076000CE80DF80E884F9845801AA2480E8B8228A
:10077000C701B601B9D366277078A616B706A9F0E7
:1007800020E030E040EF51E4C701B60141D38823B7
:100790004CF420E030E040EF51ECC701B60187D4C3
:1007A00018161CF001151105A9F0B801110F880BDE
:1007B000990BCDD3A7019601C6D2288139814A81F0
:1007C0005B812AD3A7019601BFD26E837F8388877E
:1007D00099871BC046015701B7FAB094B7F8B09497
:1007E00020E030E040E85EE3688179818A819B8186
:1007F00062D49B01AC01C501B4010ED3A7019601DF
:10080000A3D26E837F8388879987DF91CF911F91D1
:100810000F91FF90EF90DF90CF90BF90AF909F909F
:100820008F900895FC019385923431F1933409F44B
:1008300043C0913409F05FC08285833071F018F4B1
:10084000813031F00895843069F0853081F0089569
:100850007093890060938800089570939900609365
:10086000980008957093A9006093A800089570936C
:1008700029016093280108958285833071F018F46E
:10088000813031F00895843069F0853081F0089529
:1008900070938B0060938A00089570939B0060931F
:1008A0009A0008957093AB006093AA000895709326
:1008B0002B0160932A0108958285833071F018F42A
:1008C000813031F00895843069F0853081F00895E9
:1008D00070938D0060938C00089570939D006093D9
:1008E0009C0008957093AD006093AC0008957093E0
:1008F0002D0160932C010895CF92DF92EF92FF9229
:10090000CF93DF93EC01CE80DF80E884F98420E090
:1009100030E040E252ECC701B601C9D3181664F4C6
:1009200020E030E040E252E4C701B60171D28823F2
:100930001CF4CE01B6DE24C0CE01DEDE20E030E0C5
:10094000A9016E817F8188859985B1D318165CF4E1
:1009500060E0CE013DDD6E817F8188859985C4D2BE
:10096000CE0160DF0DC061E0CE0132DD8E819F815E
:10097000A885B985BC01CD019058B6D2CE0152DF11
:10098000CE01DFDEDF91CF91FF90EF90DF90CF902F
:100990000895FC0162874387423409F447C0433419
:1009A00009F488C0413411F081E483876330B1F0E9
:1009B00018F4613039F004C06430E1F0653041F181
:1009C00081E08287E0E8F0E0808181688083E1E86F
:1009D000F0E080818D608083259A0895E0E9F0E061
:1009E000808181688083E1E9F0E080818D6080838F
:1009F0006B9A0895E0EAF0E0808181688083E1EA03
:100A0000F0E080818D60808388E08093010108950B
:100A1000E0E2F1E0808181688083E1E2F1E08081C1
:100A20008D60808388E080930A0108956330B1F07F
:100A300018F4613039F004C06430E1F0653051F1F0
:100A400081E08287E0E8F0E0808181628083E1E8F4
:100A5000F0E080818D608083269A0895E0E9F0E0DF
:100A6000808181628083E1E9F0E080818D60808314
:100A70006C9A0895E0EAF0E0808181628083E1EA87
:100A8000F0E080818D608083E1E0F1E08081806131
:100A900080830895E0E2F1E0808181628083E1E279
:100AA000F1E080818D608083EAE0F1E08081806107
:100AB000808308956330B1F018F4613039F004C0D8
:100AC0006430E9F0653059F181E08287E0E8F0E0D8
:100AD000808189608083E1E8F0E080818D6080839F
:100AE000279A0895E0E9F0E0808189608083E1E958
:100AF000F0E080818D60808380E28DB90895E0EA26
:100B0000F0E0808189608083E1EAF0E080818D609F
:100B10008083E1E0F1E08081806280830895E0E2FB
:100B2000F1E0808189608083E1E2F1E080818D6085
:100B30008083EAE0F1E08081806280830895CF9332
:100B4000DF93EC016C874D87483028F4673421F43B
:100B5000463008F456C01D86862F90E0FC01E25412
:100B6000F109EB30F10528F48827EA56FF4F8F4F43
:100B700018C321B181E090E00D8402C0880F991F55
:100B80000A94E2F7822B81B97FC024B181E090E022
:100B90000D8402C0880F991F0A94E2F7822B84B952
:100BA00073C027B181E090E00D8402C0880F991FC7
:100BB0000A94E2F7822B87B967C02AB181E090E0FE
:100BC0000D8402C0880F991F0A94E2F7822B8AB91C
:100BD0005BC02DB181E090E00D8402C0880F991FA9
:100BE0000A94E2F7822B8DB94FC020B381E090E0E8
:100BF0000D8402C0880F991F0A94E2F7822B80BBF4
:100C000043C023B381E090E00D8402C0880F991F98
:100C10000A94E2F7822B83BB37C0E1E0F1E0208148
:100C200081E090E00D8402C0880F991F0A94E2F7DA
:100C3000822B808329C0E4E0F1E0208181E090E014
:100C40000D8402C0880F991F0A94E2F7822B8083DB
:100C50001BC0E7E0F1E0208181E090E00D8402C05C
:100C6000880F991F0A94E2F7822B80830DC0EAE077
:100C7000F1E0208181E090E00D8402C0880F991F8F
:100C80000A94E2F7822B8083DF91CF910895CF926F
:100C9000DF92EF92FF920F931F93CF93DF93EC01BC
:100CA000122F1D821C8280E090E0A0E8BFE38E83BB
:100CB0009F83A887B987CE016CDE402F612FCE01BC
:100CC0003EDFC882D982EA82FB82CE01EADC60E0A4
:100CD00070E0CE01A7DDDF91CF911F910F91FF90C2
:100CE000EF90DF90CF900895089583E0809369009E
:100CF00010926A0081E08DBB1AB80895109290009E
:100D00008DE08093910083E08093710010929500B4
:100D10001092940080E49FE1909399008093980052
:100D200008951DBA089588E0809391001092710093
:100D3000089581E08DBB08958DE08093910083E05C
:100D40008093710008955058BB27AA270ED075C113
:100D500066D130F06BD120F031F49F3F11F41EF4D6
:100D60005BC10EF4E095E7FB51C1E92F77D180F329
:100D7000BA17620773078407950718F071F49EF598
:100D80008FC10EF4E0950B2EBA2FA02D0B01B901E7
:100D900090010C01CA01A0011124FF27591B99F0F1
:100DA000593F50F4503E68F11A16F040A22F232FFD
:100DB000342F4427585FF3CF469537952795A7954D
:100DC000F0405395C9F77EF41F16BA0B620B730BF4
:100DD000840BBAF09150A1F0FF0FBB1F661F771F65
:100DE000881FC2F70EC0BA0F621F731F841F48F41A
:100DF000879577956795B795F7959E3F08F0B3CFA0
:100E00009395880F08F09927EE0F97958795089589
:100E1000D9D008F481E008950CD00FC107D140F07B
:100E2000FED030F021F45F3F19F0F0C0511139C10C
:100E3000F3C014D198F39923C9F35523B1F3951B4B
:100E4000550BBB27AA2762177307840738F09F5FEB
:100E50005F4F220F331F441FAA1FA9F333D00E2E5A
:100E60003AF0E0E830D091505040E695001CCAF7C7
:100E700029D0FE2F27D0660F771F881FBB1F26178C
:100E800037074807AB07B0E809F0BB0B802DBF015F
:100E9000FF2793585F4F2AF09E3F510568F0B6C078
:100EA00000C15F3FECF3983EDCF38695779567953C
:100EB000B795F7959F5FC9F7880F911D9695879510
:100EC00097F90895E1E0660F771F881FBB1F62172F
:100ED00073078407BA0720F0621B730B840BBA0BED
:100EE000EE1F88F7E095089504D06894B111D9C039
:100EF0000895BCD088F09F5790F0B92F9927B7512B
:100F0000A0F0D1F0660F771F881F991F1AF0BA95CD
:100F1000C9F712C0B13081F0C3D0B1E00895C0C0AC
:100F2000672F782F8827B85F39F0B93FCCF38695C3
:100F300077956795B395D9F73EF490958095709520
:100F400061957F4F8F4F9F4F0895E89409C097FB9D
:100F50003EF490958095709561957F4F8F4F9F4F90
:100F60009923A9F0F92F96E9BB279395F6958795D4
:100F700077956795B795F111F8CFFAF4BB0F11F497
:100F800060FF1BC06F5F7F4F8F4F9F4F16C088233E
:100F900011F096E911C0772321F09EE8872F762F74
:100FA00005C0662371F096E8862F70E060E02AF0B5
:100FB0009A95660F771F881FDAF7880F96958795A1
:100FC00097F90895990F0008550FAA0BE0E8FEEF76
:100FD00016161706E807F907C0F012161306E407FD
:100FE000F50798F0621B730B840B950B39F40A26F6
:100FF00061F0232B242B252B21F408950A2609F4D4
:10100000A140A6958FEF811D811D089597F99F67D7
:1010100080E870E060E008959FEF80EC0895002480
:101020000A941616170618060906089500240A944D
:1010300012161306140605060895092E0394000CD3
:1010400011F4882352F0BB0F40F4BF2B11F460FF62
:1010500004C06F5F7F4F8F4F9F4F089557FD90588B
:10106000440F551F59F05F3F71F04795880F97FB6C
:10107000991F61F09F3F79F0879508951216130626
:101080001406551FF2CF4695F1DF08C01616170655
:101090001806991FF1CF869571056105089408958A
:1010A000E894BB2766277727CB0197F908958ADF55
:1010B00008F48FEF08950BD0C0CFB1DF28F0B6DF72
:1010C00018F0952309F0A2CFA7CF1124EACFC6DFED
:1010D000A0F3959FD1F3950F50E0551F629FF0014B
:1010E000729FBB27F00DB11D639FAA27F00DB11DA4
:1010F000AA1F649F6627B00DA11D661F829F22272D
:10110000B00DA11D621F739FB00DA11D621F839FB3
:10111000A00D611D221F749F3327A00D611D231F89
:10112000849F600D211D822F762F6A2F11249F57D7
:1011300050408AF0E1F088234AF0EE0FFF1FBB1FFA
:10114000661F771F881F91505040A9F79E3F510599
:1011500070F05CCFA6CF5F3FECF3983EDCF3869552
:1011600077956795B795F795E7959F5FC1F7FE2B44
:10117000880F911D9695879597F9089597FB072EEF
:1011800016F4009406D077FD08D013D007FC05D0E4
:101190003EF4909581959F4F0895709561957F4F8E
:1011A0000895EE0FFF1F881F8BBF0790F691E02D6B
:1011B0001994AA1BBB1B51E107C0AA1FBB1FA6178E
:1011C000B70710F0A61BB70B881F991F5A95A9F7F0
:0E11D00080959095BC01CD010895F894FFCF55
:00000001FF
