S01400004D61696E2050726F6772616D2E7372656393
S1130000A1C0000016C10000CDC00000CBC000009C
S1130010C9C00000C7C00000C5C00000C3C00000C4
S1130020C1C00000BFC00000BDC00000BBC00000D4
S1130030B9C00000B7C00000B5C00000B3C00000E4
S1130040B1C00000AFC00000ADC00000ABC00000F4
S1130050A9C00000A7C00000A5C00000A3C0000004
S1130060A1C000009FC000009DC000009BC0000014
S113007099C0000097C0000095C0000093C0000024
S11300807AC100008FC000008DC000008BC000004A
S113009089C0000087C0000085C0000083C0000044
S11300A081C000007FC000007DC000007BC0000054
S11300B079C0000077C0000075C0000073C0000064
S11300C071C000006FC000006DC000006BC0000074
S11300D069C0000067C0000065C0000063C0000084
S11300E061C00000580158016501720172017F016D
S11300F07F018C018C018C019201640374038403DD
S11301009403A403B403C403D403B604E603F803BA
S11301100A042B04370443044F045B046704730488
S11301207F04B6048D049B04A9043F074B075707BB
S113013063076F077B07870793073D07A107AF078F
S1130140BD071E0211241FBECFEFD1E2DEBFCDBF1B
S113015000E00CBF12E0A0E0B2E0E0EEF7E100E066
S11301600BBF02C007900D92A034B107D9F722E06B
S1130170A0E4B2E001C01D92A635B207E1F710E099
S1130180C2EAD0E000E006C021970109802FFE01F9
S11301900E94D20BC13AD10780E00807A9F719D110
S11301A00C94EE0B2DCF0895EAE0F1E08081886095
S11301B08083EBE0F1E08081877F808380B383607C
S11301C080BB81B38C7F81BBE0E2F1E080818368F6
S11301D08083E1E2F1E08081836080838DEC90E0B4
S11301E090932901809328010895613039F0623099
S11301F061F0109229011092280108958DEC90E08D
S1130200909329018093280108958FEF93E09093B0
S11302102901809328010895662319F0613029F09B
S1130220089581B38C7F81BB089581B3836081BBC2
S113023008951F920F920FB60F9211240BB60F92CE
S11302402F933F934F935F936F937F938F939F93DA
S1130250AF93BF93EF93FF9383E492E0FED683E4DE
S113026092E006D7809140029091410201969093CA
S11302704102809340028730910541F018F00997BC
S1130280039720F061E084E492E0C7D780914002B4
S113029085B9E0914002F09141023197EB30F105CC
S11302A008F051C08827EE58FF4F8F4F0C94D20BA3
S11302B040E050E06FE274E485E492E0AAD364E69F
S11302C070E085E492E051D143C040E050E46CE931
S11302D075E485E492E09DD364E170E085E492E006
S11302E044D136C040E050E46CE176E485E492E029
S11302F090D364E670E085E492E037D129C040E011
S113030050E06FE274E485E492E083D36CE97FEF1C
S113031085E492E02AD11CC064E670E085E492E0B2
S113032024D116C040E050E46CE975E485E492E021
S113033070D360E070E085E492E017D162E084E479
S113034092E06BD705C060E070E085E492E00DD1E7
S1130350FF91EF91BF91AF919F918F917F916F9199
S11303605F914F913F912F910F900BBE0F900FBE55
S11303700F901F9018951F920F920FB60F92112491
S11303800BB60F922F933F934F935F936F937F938B
S11303908F939F93AF93BF93EF93FF938FEF8CBB98
S11303A083E492E05CD683E492E05FD6FF91EF9120
S11303B0BF91AF919F918F917F916F915F914F9179
S11303C03F912F910F900BBE0F900FBE0F901F9077
S11303D01895789483E492E024D683E492E02AD6B4
S11303E083E492E03CD6E12C0EE428E040E855E2B8
S11303F060E070E084E492E043D684E492E0D4D6F2
S113040084B18E6F84B915B8189BFECF60E084E484
S113041092E003D72FEF8BE792E921508040904080
S1130420E1F700C0000064E670E085E492E09DD04E
S11304308FEF84B985E492E05CD3FCCFCF92DF9256
S1130440EF92FF920F930F2EC12CD12CFFE2EF2ECF
S1130450F4E4FF2EF02D06E028E443E464E085E4B0
S113046092E09BD584E492E00AD683E492E0D8D566
S113047082E492E098DE0F91FF90EF90DF90CF90AE
S113048008958F929F92AF92BF92CF92DF92EF9294
S1130490FF920F931F93CF93DF93EC010C811D8187
S11304A0CE80DF80E884F9845801AA2480E8B82249
S11304B0C701B601F8D766277078A616B706B1F05B
S11304C020E030E040EF51E4C701B60180D7882333
S11304D054F420E030E040EF51ECC701B6010E9433
S11304E0360B18161CF001151105B1F0B801110FE7
S11304F0880B990B0E94860AA701960103D72881CD
S113050039814A815B8167D7A7019601FCD66E8346
S11305107F83888799871CC046015701B7FAB09436
S1130520B7F8B09420E030E040E85EE36881798178
S11305308A819B810E943A0B9B01AC01C501B401E5
S11305404AD7A7019601DFD66E837F838887998770
S1130550DF91CF911F910F91FF90EF90DF90CF909B
S1130560BF90AF909F908F9008952F923F924F929B
S11305705F926F927F928F929F92AF92BF92CF922F
S1130580DF92EF92FF920F931F93CF93DF937C013F
S1130590EB012FEF269FC001279F900D112464E6E5
S11305A070E00E949D0B8B016B011616170624F058
S11305B022242A94322C03C022242394312CF701C0
S11305C086809780A084B18420E030E0A901C50131
S11305D0B4010E94360B18160CF448C0CC59DF4FF6
S11305E0C93CD10570F5B801DD2024F466277727CE
S11305F0601B710B072E000C880B990B87D72B01FE
S11306003C0120E030E0A901C501B4010E94360B91
S113061018163CF0B7FAB094B7F8B094CFEFDFEF08
S113062002C0CFEFDFEFA3019201C501B4010E9424
S1130630360B18161CF02C163D0619F081E0F70154
S11306408687F7011583048317C0B801DD2024F4DD
S113065066277727601B710B072E000C880B990BFC
S113066055D72B013C01C1E0D0E0DDCFCC59DF4FA1
S1130670C93CD10550F3E5CFDF91CF911F910F9184
S1130680FF90EF90DF90CF90BF90AF909F908F90AE
S11306907F906F905F904F903F902F900895CF93ED
S11306A0DF93EC016111C8C0EC858E2F90E0FC0152
S11306B0E154F109EC30F10508F058C18827E358FA
S11306C0FF4F8F4F0C94D20B82B121E030E00D84A8
S11306D002C0220F331F0A94E2F791E0232B09F0A2
S11306E090E0892382B942C185B121E030E00D84D4
S11306F002C0220F331F0A94E2F791E0232B09F082
S113070090E0892385B932C188B121E030E00D84BD
S113071002C0220F331F0A94E2F791E0232B09F061
S113072090E0892388B922C18BB121E030E00D84A7
S113073002C0220F331F0A94E2F791E0232B09F041
S113074090E089238BB912C18EB121E030E00D8491
S113075002C0220F331F0A94E2F791E0232B09F021
S113076090E089238EB902C181B321E030E00D8489
S113077002C0220F331F0A94E2F791E0232B09F001
S113078090E0892381BBF2C084B321E030E00D8482
S113079002C0220F331F0A94E2F791E0232B09F0E1
S11307A090E0892384BBE2C08091020121E030E023
S11307B00D8402C0220F331F0A94E2F791E0232B29
S11307C009F090E0892380930201D0C08091050153
S11307D021E030E00D8402C0220F331F0A94E2F7B7
S11307E091E0232B09F090E0892380930501BEC09A
S11307F08091080121E030E00D8402C0220F331FF4
S11308000A94E2F791E0232B09F090E08923809386
S11308100801ACC080910B0121E030E00D8402C0DE
S1130820220F331F0A94E2F791E0232B09F090E0A2
S1130830892380930B019AC0EC858E2F90E0FC01F4
S1130840E154F109EC30F10508F090C08827E7572E
S1130850FF4F8F4FA7C722B181E090E00D8402C003
S1130860880F991F0A94E2F7822B82B97FC025B1C1
S113087081E090E00D8402C0880F991F0A94E2F78A
S1130880822B85B973C028B181E090E00D8402C049
S1130890880F991F0A94E2F7822B88B967C02BB19D
S11308A081E090E00D8402C0880F991F0A94E2F75A
S11308B0822B8BB95BC02EB181E090E00D8402C025
S11308C0880F991F0A94E2F7822B8EB94FC021B387
S11308D081E090E00D8402C0880F991F0A94E2F72A
S11308E0822B81BB43C024B381E090E00D8402C01D
S11308F0880F991F0A94E2F7822B84BB37C0E2E089
S1130900F1E0208181E090E00D8402C0880F991FFE
S11309100A94E2F7822B808329C0E5E0F1E020818C
S113092081E090E00D8402C0880F991F0A94E2F7D9
S1130930822B80831BC0E8E0F1E0208181E090E01D
S11309400D8402C0880F991F0A94E2F7822B8083DA
S11309500DC0EBE0F1E0208181E090E00D8402C065
S1130960880F991F0A94E2F7822B8083DF91CF913D
S11309700895CF93DF93EC0160E091DE8A858330A4
S113098079F018F4813031F01CC0843079F085306E
S113099099F017C0E1E8F0E080818A7F808311C07C
S11309A0E1E9F0E080818A7F80830BC0E1EAF0E036
S11309B080818A7F808305C0E1E2F1E080818A7FC3
S11309C08083DF91CF910895FC018285833079F093
S11309D018F4813031F00895843079F0853099F03D
S11309E00895E1E8F0E08081856080830895E1E97D
S11309F0F0E08081856080830895E1EAF0E0808101
S1130A00856080830895E1E2F1E0808185608083E0
S1130A100895FC0140835183628373830895FC012C
S1130A209385923431F1933409F443C0913409F03D
S1130A305FC08285833071F018F4813031F00895FD
S1130A40843069F0853081F0089570938900609353
S1130A5088000895709399006093980008957093A6
S1130A60A9006093A8000895709329016093280158
S1130A7008958285833071F018F4813031F008953F
S1130A80843069F0853081F0089570938B00609311
S1130A908A00089570939B0060939A000895709360
S1130AA0AB006093AA00089570932B0160932A0110
S1130AB008958285833071F018F4813031F00895FF
S1130AC0843069F0853081F0089570938D006093CF
S1130AD08C00089570939D0060939C00089570931A
S1130AE0AD006093AC00089570932D0160932C01C8
S1130AF008958F929F92AF92BF92CF92DF92EF921E
S1130B00FF92CF93DF93EC01CE80DF80E884F984F9
S1130B1020E030E040E252ECC701B601A7D5181638
S1130B20E4F420E030E040E252E4C701B6014FD4DF
S1130B3088239CF4CE011DDF7E0120E1E20EF11C2E
S1130B4060E0C70169DB8E8581114DC08F858111FD
S1130B508DC060E0C70149DB42C0CE0135DF7E01B4
S1130B6080E1E80EF11C61E0C70156DB20E030E0D3
S1130B70A9016E817F818885998578D518165CF4E2
S1130B8060E0CE018CDD6E817F81888599858BD470
S1130B90CE0145DF0DC061E0CE0181DD8E819F81F4
S1130BA0A885B985BC01CD0190587DD4CE0137DF2D
S1130BB08E8581110DC08F8581110AC020E030E03F
S1130BC0A9016E817F818885998501D4882324F4C5
S1130BD062E0C7010ADB03C061E0C70106DB8E8562
S1130BE0882309F440C08E809F80A884B984EC8057
S1130BF0FD80B701665F7F4F072E000C880B990BB1
S1130C0085D49B01AC01C501B401E1D388237CF4F4
S1130C10B7016A507109072E000C880B990B76D422
S1130C209B01AC01C501B40121D5181694F020E054
S1130C3030E040E252ECC501B40118D518169CF41A
S1130C4020E030E040E252E4C501B401C0D388237F
S1130C5054F41E8681E08F8784E080938100109293
S1130C608500109284008F85882351F08091840040
S1130C709091850083319A4718F01F861092810065
S1130C80CE01FFDBDF91CF91FF90EF90DF90CF900B
S1130C90BF90AF909F908F900895FC016287438727
S1130CA0423409F447C0433409F488C0413411F094
S1130CB081E483876330B1F018F4613039F004C003
S1130CC06430E1F0653041F181E08287E0E8F0E0F2
S1130CD0808181688083E1E8F0E080818D60808399
S1130CE0259A0895E0E9F0E0808181688083E1E954
S1130CF0F0E080818D6080836B9A0895E0EAF0E0F3
S1130D00808181688083E1EAF0E080818D60808366
S1130D1088E0809301010895E0E2F1E08081816838
S1130D208083E1E2F1E080818D60808388E08093BC
S1130D300A0108956330B1F018F4613039F004C049
S1130D406430E1F0653051F181E08287E0E8F0E061
S1130D50808181628083E1E8F0E080818D6080831E
S1130D60269A0895E0E9F0E0808181628083E1E9D8
S1130D70F0E080818D6080836C9A0895E0EAF0E071
S1130D80808181628083E1EAF0E080818D608083EC
S1130D90E1E0F1E08081806180830895E0E2F1E0A8
S1130DA0808181628083E1E2F1E080818D608083D3
S1130DB0EAE0F1E080818061808308956330B1F0DE
S1130DC018F4613039F004C06430E9F0653059F149
S1130DD081E08287E0E8F0E0808189608083E1E857
S1130DE0F0E080818D608083279A0895E0E9F0E047
S1130DF0808189608083E1E9F0E080818D60808377
S1130E0080E28DB90895E0EAF0E080818960808312
S1130E10E1EAF0E080818D608083E1E0F1E08081AF
S1130E20806280830895E0E2F1E0808189608083BC
S1130E30E1E2F1E080818D608083EAE0F1E080818D
S1130E40806280830895CF93DF93EC016C874D8794
S1130E50483028F4673421F4463008F458C01D861D
S1130E60862F90E0FC01E154F109EC30F10528F4FF
S1130E708827EB56FF4F8F4F95C481E48C8721B1AF
S1130E8081E090E00D8402C0880F991F0A94E2F774
S1130E90822B81B97FC024B181E090E00D8402C02F
S1130EA0880F991F0A94E2F7822B84B973C027B183
S1130EB081E090E00D8402C0880F991F0A94E2F744
S1130EC0822B87B967C02AB181E090E00D8402C00B
S1130ED0880F991F0A94E2F7822B8AB95BC02DB15F
S1130EE081E090E00D8402C0880F991F0A94E2F714
S1130EF0822B8DB94FC020B381E090E00D8402C0F5
S1130F00880F991F0A94E2F7822B80BB43C023B356
S1130F1081E090E00D8402C0880F991F0A94E2F7E3
S1130F20822B83BB37C0E1E0F1E0208181E090E0D7
S1130F300D8402C0880F991F0A94E2F7822B8083E4
S1130F4029C0E4E0F1E0208181E090E00D8402C05A
S1130F50880F991F0A94E2F7822B80831BC0E7E075
S1130F60F1E0208181E090E00D8402C0880F991F98
S1130F700A94E2F7822B80830DC0EAE0F1E020813D
S1130F8081E090E00D8402C0880F991F0A94E2F773
S1130F90822B8083DF91CF9108956F927F92AF92DD
S1130FA0BF92CF92DF92EF92FF920F931F93CF9352
S1130FB0DF93EC01762E642E122F5C0180E1A80EE3
S1130FC0B11CC501F0D81D821C8280E090E0A0E82D
S1130FD0BFE38E839F83A887B9871E861F86462D0D
S1130FE0672DCE015ADE402F612FCE012CDFC8823F
S1130FF0D982EA82FB82CE01BCDC60E070E0CE01E3
S11310000EDDC501D1D8DF91CF911F910F91FF90D3
S1131010EF90DF90CF90BF90AF907F906F90089546
S1131020089583E08093690010926A0081E08DBB8B
S11310301AB80895109290008DE08093910083E097
S113104080937100109295001092940080E797E1CC
S1131050909399008093980008951DBA089588E0AC
S11310608093910010927100089581E08DBB0895E2
S11310708DE08093910083E080937100089508953A
S1131080EF920F93CF93C22FDB01CA018C52914090
S1131090A109B109853D904CA140B10508F078C083
S11310A08BEF8C0F843008F073C080E28093C8000B
S11310B088E18093C9001092CA00DB01CA018058FC
S11310C09B47A14EBF4F880F991FAA1FBB1F880FB4
S11310D0991FAA1FBB1F880F991FAA1FBB1F440F6C
S11310E0551F661F771F440F551F661F771F9A01F0
S11310F0AB01220F331F441F551F220F331F441F00
S1131100551FBC01CD012CD3215031093093CD00A2
S11311102093CC00C83031F4EAECF0E080818660A2
S1131120808316C0C73031F4EAECF0E0808184603B
S113113080830EC0C63031F4EAECF0E08081826036
S1131140808306C0C53021F4EAECF0E0808180831E
S1131150053431F4EAECF0E08081806280830CC0D5
S11311600F3431F4EAECF0E080818063808304C0C2
S1131170EAECF0E080818083E11005C0E9ECF0E066
S11311808081808305C0E9ECF0E080818068808301
S1131190CF910F91EF900895E8ECF0E0808185FF06
S11311A0FDCF6093CE000895CF92DF92EF92FF922D
S11311B00F931F93CF93DF93CDB7DEB760970FB62E
S11311C0F894DEBF0FBECDBF6C0180E1E0E0F2E039
S11311D0DE01119601900D928A95E1F78E010F5F61
S11311E01F4F7E0181E1E80EF11CF80161917191BC
S11311F08F01C601D1DF0E151F05B9F760960FB632
S1131200F894DEBF0FBECDBFDF91CF911F910F9138
S1131210FF90EF90DF90CF900895CF92DF92EF92FE
S1131220FF920F931F93CF93DF93CDB7DEB7E09771
S11312300FB6F894DEBF0FBECDBF8C0180E1E0E1B4
S1131240F2E0DE01119601900D928A95E1F780E1BA
S1131250E0E2F2E0DE01519601900D928A95E1F709
S113126080E1E0E3F2E0DE01919601900D928A952F
S1131270E1F76130A9F018F0623021F134C0CE01F9
S113128001967C016E0191E1C90ED11CF7016191B7
S113129071917F01C80180DFCE14DF04B9F723C048
S11312A07E01F1E1EF0EF11C6E0181E2C80ED11C4A
S11312B0F701619171917F01C8016EDFEC14FD04A7
S11312C0B9F711C07E01F1E2EF0EF11C6E0181E36A
S11312D0C80ED11CF701619171917F01C8015CDFD7
S11312E0CE14DF04B9F7E0960FB6F894DEBF0FBE54
S11312F0CDBFDF91CF911F910F91FF90EF90DF90C1
S1131300CF9008955058BB27AA270ED075C166D137
S113131030F06BD120F031F49F3F11F41EF45BC127
S11313200EF4E095E7FB51C1E92F77D180F3BA17AA
S1131330620773078407950718F071F49EF58FC14F
S11313400EF4E0950B2EBA2FA02D0B01B9019001DC
S11313500C01CA01A0011124FF27591B99F0593F20
S113136050F4503E68F11A16F040A22F232F342F68
S11313704427585FF3CF469537952795A795F040B6
S11313805395C9F77EF41F16BA0B620B730B840BCB
S1131390BAF09150A1F0FF0FBB1F661F771F881F83
S11313A0C2F70EC0BA0F621F731F841F48F48795DB
S11313B077956795B795F7959E3F08F0B3CF9395CA
S11313C0880F08F09927EE0F979587950895D9D03F
S11313D008F481E008950CD00FC107D140F0FED08D
S11313E030F021F45F3F19F0F0C0511139C1F3C05E
S11313F014D198F39923C9F35523B1F3951B550BD5
S1131400BB27AA2762177307840738F09F5F5F4FD3
S1131410220F331F441FAA1FA9F333D00E2E3AF014
S1131420E0E830D091505040E695001CCAF729D02E
S1131430FE2F27D0660F771F881FBB1F261737077D
S11314404807AB07B0E809F0BB0B802DBF01FF27AD
S113145093585F4F2AF09E3F510568F0B6C000C113
S11314605F3FECF3983EDCF3869577956795B795E7
S1131470F7959F5FC9F7880F911D9695879597F902
S11314800895E1E0660F771F881FBB1F621773077B
S11314908407BA0720F0621B730B840BBA0BEE1F90
S11314A088F7E095089504D06894B111D9C00895DF
S11314B0BCD088F09F5790F0B92F9927B751A0F06E
S11314C0D1F0660F771F881F991F1AF0BA95C9F7D4
S11314D012C0B13081F0C3D0B1E00895C0C0672F0D
S11314E0782F8827B85F39F0B93FCCF38695779584
S11314F06795B395D9F73EF490958095709561956D
S11315007F4F8F4F9F4F0895E89409C097FB3EF497
S113151090958095709561957F4F8F4F9F4F99233C
S1131520A9F0F92F96E9BB279395F69587957795BA
S11315306795B795F111F8CFFAF4BB0F11F460FF7A
S11315401BC06F5F7F4F8F4F9F4F16C0882311F0D2
S113155096E911C0772321F09EE8872F762F05C0E6
S1131560662371F096E8862F70E060E02AF09A9581
S1131570660F771F881FDAF7880F9695879597F976
S11315800895990F0008550FAA0BE0E8FEEF161610
S11315901706E807F907C0F012161306E407F50763
S11315A098F0621B730B840B950B39F40A2661F0D7
S11315B0232B242B252B21F408950A2609F4A1407A
S11315C0A6958FEF811D811D089597F99F6780E887
S11315D070E060E008959FEF80EC089500240A9481
S11315E01616170618060906089500240A941216FA
S11315F01306140605060895092E0394000C11F42D
S1131600882352F0BB0F40F4BF2B11F460FF04C0D9
S11316106F5F7F4F8F4F9F4F089557FD9058440F32
S1131620551F59F05F3F71F04795880F97FB991F3D
S113163061F09F3F79F087950895121613061406FA
S1131640551FF2CF4695F1DF08C016161706180687
S1131650991FF1CF86957105610508940895E89462
S1131660BB2766277727CB0197F908958ADF08F40B
S11316708FEF08950BD0C0CFB1DF28F0B6DF18F09C
S1131680952309F0A2CFA7CF1124EACFC6DFA0F398
S1131690959FD1F3950F50E0551F629FF001729F03
S11316A0BB27F00DB11D639FAA27F00DB11DAA1F22
S11316B0649F6627B00DA11D661F829F2227B00D6F
S11316C0A11D621F739FB00DA11D621F839FA00DFA
S11316D0611D221F749F3327A00D611D231F849F4A
S11316E0600D211D822F762F6A2F11249F575040A1
S11316F08AF0E1F088234AF0EE0FFF1FBB1F661F3C
S1131700771F881F91505040A9F79E3F510570F0F4
S11317105CCFA6CF5F3FECF3983EDCF386957795DC
S11317206795B795F795E7959F5FC1F7FE2B880FEF
S1131730911D9695879597F9089597FB072E16F4B2
S1131740009406D077FD08D035D007FC05D03EF4D0
S1131750909581959F4F0895709561957F4F089559
S1131760A1E21A2EAA1BBB1BFD010DC0AA1FBB1FA1
S1131770EE1FFF1FA217B307E407F50720F0A21B13
S1131780B30BE40BF50B661F771F881F991F1A9480
S113179069F760957095809590959B01AC01BD01AA
S11317A0CF010895EE0FFF1F881F8BBF0790F6919E
S11317B0E02D1994AA1BBB1B51E107C0AA1FBB1F34
S11317C0A617B70710F0A61BB70B881F991F5A95C9
S11317D0A9F780959095BC01CD010895F894FFCFA9
S11317E07E000600000000001A00FF00DC00EF008D
S11317F07E000300000000000100FF00FC00EF0079
S11318007E000300000000000200FF00FB00EF0068
S11318107E000300000000000300FF00FA00EF0058
S9030000FC
